:020000040800F2
:10000000302600203103000829960008CD7600082C
:1000100025960008A5160008C5BA000800000000D3
:1000200000000000000000000000000061AA0008BD
:10003000B524000800000000E19A0008FDB10008A6
:100040004B0300084B0300084B0300084B03000858
:100050004B0300084B0300084B0300084B03000848
:100060004B030008C12500084B0300084B030008A0
:100070004B0300084B0300084B0300084B03000828
:100080004B0300084B030008691000084B030008ED
:10009000A9160008B11600084B0300084B0300081E
:1000A0004B0300084B0300084B0300084B030008F8
:1000B0004B0300084B0300084B0300084B030008E8
:1000C0004B0300084B0300084B0300084B030008D8
:1000D0004B030008BDBA00084B0300084B0300089F
:1000E0004B0300084B0300084B0300084B030008B8
:1000F0004B0300084B0300084B0300084B030008A8
:100100004B0300084B0300084B0300084B03000897
:100110004B0300084B0300084B0300084B03000887
:10012000192300084B0300084B0300084B03000889
:100130004B03000800000000000000004B03000813
:100140004B0300084B0300084B0300084B03000857
:100150004B0300084B030008292300084B03000849
:100160004B0300084B0300084B0300084B03000837
:100170004B0300084B0300084B030008000000007D
:10018000000000004B030008000000000000000019
:100190004B03000800000000000000004B030008B3
:1001A0000000000000000000000000004B030008F9
:1001B0004B0300084B0300084B0300084B030008E7
:1001C0004B03000800F002F800F0A3F814A696E82C
:1001D000000CB244B344DA4501D100F09AF8BAE811
:1001E0000F000FA696E83000A5EB040504EB060708
:1001F000AAEB0704A7F101074FEA15154FEA3414DB
:10020000A4F10104AC4201D300F083F813F0010F14
:1002100018BFFB1A43F0010300F001F8DBE71847B1
:1002200008D5000028D50000103A24BF78C878C14E
:10023000FAD8520724BF30C830C144BF04680C60EC
:1002400070470000704700000023002400250026AE
:10025000103A28BF78C1FBD8520728BF30C148BF29
:100260000B6070476E2900F04581702900F087828D
:100270006629AFF300806529AFF300806729AFF3EB
:1002800000806129AFF3008003681B0A28BF41F09A
:100290008001692900F0F280642900F0EF8075295F
:1002A00000F0EC806F2900F01582782900F053826D
:1002B000E92900F0AF81E42900F0AC81F52900F0D4
:1002C000A981EF2900F01282F82900F05282036818
:1002D000DB0928BF41F08001632900F0CB8373293B
:1002E00000F0D083E32900F0DB83F32900F0E08302
:1002F000002070471FB50CF0EAFC00F03DFC040044
:10030000002000210CF0A0F8401C60601FBD10B55B
:1003100010BD00F0F9FB1146FFF7ECFF0CF016F8EA
:1003200000F020FC03B4FFF7F2FF03BC00F066FC12
:100330000948804709480047FEE7FEE7FEE7FEE779
:10034000FEE7FEE7FEE7FEE7FEE7FEE704480549B5
:10035000054A064B70470000CDB20008C5010008F1
:1003600030200020302600203022002030220020C3
:100370000FB41CB5084B06AA7B446946009005984B
:1003800000F0D1F804460020694600F0DFF820466E
:100390001CBC5DF814FB0000D101000070477047E1
:1003A000704710B500F0BAFA006810BD10B50446E9
:1003B00000F0B4FA046010BD70B5044685690068A9
:1003C000C10601D5302600E02026C00707D070BD49
:1003D000D4E9012130469047206A401C20626D1EFE
:1003E000F6D570BD70B5044685690078C00707D1A1
:1003F00070BDD4E9012120209047206A401C206272
:100400006D1EF6D570BD09684A0501D540B270472A
:10041000C905FCD500B2704709684A0501D5C0B2CC
:100420007047C905FCD580B2704770B50C460546CB
:10043000012A05D02878800600D5EA69002302E069
:10044000012305E05B1C934202D2E05C0028F9D155
:10045000A869E618C01AA861286A184428622846C4
:10046000FFF7AAFF04E0D5E9012114F8010B90473A
:10047000B442F8D32846FFF7B5FF70BD2DE9F0412F
:100480000646002410687529314616A510D0FFF7DE
:10049000BAFF002802DA404213A507E031688A0754
:1004A00001D512A502E0490704D511A5012401E0F8
:1004B000FFF7B2FF00210A2206F1240709E0B0FB92
:1004C000F2FCB0FBF2F302FB1C003030785418460B
:1004D000491C0028F3D123462A463046BDE8F041A6
:1004E00000F065BA000000002D0000002B000000A5
:1004F0002000000011680268006A530501D50870E9
:100500000AE0D30501D5088006E0130603D5C2171B
:10051000C1E9000200E008600120704701694A1C3F
:1005200002610878704700B58FB0CDE90131002134
:10053000059105497944CDE903101146684600F05C
:1005400029F90FB000BD0000E5FFFFFF0A6802F8BF
:10055000010B0A60704700002DE9FF5F15468A46CF
:100560000446DFF8AC80F8440027D8E900103E4686
:10057000CDE9001010E05AF826106A4602A800F0F3
:100580009BFA411C07D02178890603D5E269391806
:1005900091420DD80744761C2078800602D5E06988
:1005A000B84205DDAE42E6DB5AF826000028E2D16B
:1005B000A069C01BA0612046FFF7FEFED8E900102D
:1005C000CDE90010002017E05AF828106A4602A86A
:1005D00000F072FAB0F1FF3F81460BD000250DF11B
:1005E000080B05E0D4E901211BF8050090476D1CBC
:1005F0004D45F7D308F10100B0428046E4DB206AA4
:10060000384420622046FFF7EDFEBDE8FF9F000062
:100610008AC700002DE9F0418046D21D22F0070272
:100620000025D2E90002F52915A614D0011E72F1A9
:10063000000106DA0023D0EB030063EB020211A6EF
:1006400008E0D8F800108B0701D50FA602E0490793
:1006500001D50EA601251146002408F1240704E067
:1006600000F060F930323A55641C50EA0102F7D1CB
:100670002B46324621464046BDE8F04100F097B98E
:10068000000000002D0000002B00000020000000F2
:1006900030B4002100F1240408E002F00705D2087C
:1006A000303542EA4372DB086554491C52EA0305BF
:1006B000F3D10468002310A2250708D504F0200414
:1006C0000C4304D0C46901230CA2641EC46130BC75
:1006D00000F06DB910B5044621461068FFF79CFE86
:1006E00002462046BDE810400023D1E7D21D22F08B
:1006F0000701D1E90023CBE7000000003000000033
:10070000F0B40D460188090502D5214C7C4402E075
:100710001F4C7C440E34002100F1240608E002F056
:100720000F071209E75D42EA03721B097754491C5F
:1007300052EA0307F3D102780023120704D5702D83
:1007400006D009B1022311342246F0BC00F02FB9C3
:1007500001231034F8E770B504460D4621461068B1
:10076000FFF75AFE024629462046BDE870400023A6
:10077000C6E7D21D22F00703D3E90023C0E70368D0
:10078000126843F0200303600823C3610023B7E726
:10079000ECC500002DE9F05F894604464FF0000AE1
:1007A000DFF874B1FB44C0F820A02046E168884718
:1007B000002874D0252806D0D4E901219047206A6A
:1007C000401C2062F1E700265F462046E16888472A
:1007D0002028054607DB312D05D2781910F8200CAA
:1007E00008B10643F1E7B00701D526F00406C4F8C6
:1007F0001CA00027C4F818A02A2D09D028460BF009
:100800001CFE38B304EB8708303DC8F8185019E0D7
:1008100059F8041B204604EB87029161E168884780
:10082000012F054618D1E069002820DA26F02006BD
:100830001DE0D8F8180000EB800005EB40003038D0
:10084000C8F818002046E168884705460BF0F5FD1A
:100850000028EED1012F0AD02E2D08D12046E168C4
:1008600088477F1C0546022F46F02006C4DBA0699E
:10087000002803DA404246F00106A061F00701D0EB
:1008800026F010066C2D0BD0682D09D04C2D39D0D8
:100890006A2D35D0742D35D07A2D33D016E038E05E
:1008A000E1682F4620468847B842054609D16C2F9B
:1008B00026D04FF48060E16806432046884705460D
:1008C00004E06C2F1AD04FF4807006430DB3A5F1ED
:1008D0004100192802D8203546F400664A462946C8
:1008E000204626604E46FFF7BDFC80B101280BD0A4
:1008F000F61D26F0070000F1080956E74020E4E75E
:100900008020D8E70020D6E706F104094DE7284605
:1009100052E7206ABDE8F09F7CC5000000487047A0
:100920002800002030B5B0F10A0271F100034FEA4F
:10093000900E4EEA817EB0EB0E0061EB91014FEA22
:10094000101E4EEA017E10EB0E0041EB11114FEA32
:10095000102E4EEA016E10EB0E0041EB11214FEA12
:10096000104E4EEA014E10EB0E0041EB11414018C3
:1009700041F100014FEAD00040EA41704FEAD10155
:100980004FEA810444EA907410EB800544EB0104C3
:100990006D1944EB0404521BA3414FF0000348BF00
:1009A0000A3200D530BD401C41F1000130BD2DE9B7
:1009B000F0470D4699469246044600F12408016826
:1009C000880604D5E06921F01001216000E00120D3
:1009D000A84201DD471B00E00027A1697A1902EB5C
:1009E0000900081AA0612078C00602D42046FFF74B
:1009F000E3FC002608E0D4E901211AF8060090473C
:100A0000206A401C761C20624E45F4DB2078C0062C
:100A10000AD52046FFF7D0FC06E0D4E901213020BA
:100A20009047206A401C2062381EA7F10107F4DCC1
:100A300007E0D4E9012118F805009047206A401C1E
:100A40002062281EA5F10105F3DC2046FFF7CAFC51
:100A50002078000602D50220BDE8F0870120FBE7E0
:100A600010B5436913B1AFF3008001E0FFF7DDFC7F
:100A7000012010BD127800F124010A7000224A7092
:100A80000122EDE711684FF0FF32E9E710B5436945
:100A900013B1AFF3008001E0FFF75EFD012010BD50
:100AA000126800F124014262002282620122EDE715
:100AB00011684FF0FF32E9E72DE9F04116460C4688
:100AC000054600F047F8036893F80101012807D0B4
:100AD000FF2C12D8185D80B101202C70BDE8F08188
:100AE000D3F807013246214603F20713C7182846F8
:100AF000BC46BDE8F041012360474FF0FF30EDE711
:100B000000487047280000207546FFF7F9FFAE4601
:100B100005006946534620F00700854618B020B509
:100B2000FFF714FCBDE820404FF000064FF000072F
:100B30004FF000084FF0000BAC46ACE8C009ACE841
:100B4000C009ACE8C009ACE8C00921F007018D4636
:100B50007047000010B500F00FF8001D10BD00BF79
:100B6000E9B8000010B50446AFF300802046BDE8A8
:100B70001040FFF7D7BB0000004870474800002036
:100B800030B44FF0013C50F8042B51F8043BCCFA40
:100B900052F4D51A20D1FCB950F8042B51F8043B7B
:100BA000CCFA52F4D51A17D1B4B950F8042B51F835
:100BB000043BCCFA52F4D51A0ED16CB950F8042B80
:100BC00051F8043BCCFA52F4D51A05D1002CDAD0F6
:100BD00030BC4FF00000704729BAB1FA81F111F032
:100BE0001801D1F120008440F2D1CA40CB4012F06C
:100BF000FF0213F0FF0330BCD01A704701491820E0
:100C0000ABBEFEE726000200704753EA020C00F07C
:100C100069802DE9F04B4FF00006002B1FBFB3FA9F
:100C200083F503FA05F424FA05F65E4012BF164375
:100C3000B2FA82F502FA05F4C5F120051EBF22FAC8
:100C400005FC44EA0C04203556EA044C4FEA1444EF
:100C500018BF641C4FF000084FF00009904271EB80
:100C6000030C39D3002919BFB1FA81F701FA07F64D
:100C7000B0FA80F700FA07F6C7F120071EBF20FA86
:100C800007FC46EA0C062037B6FBF4FCA7EB050789
:100C9000103F07F01F0BCBF120062CFA06F60CFADA
:100CA0000BFB44BFB3460026202FA4BF5E464FF087
:100CB000000B5BEA060C08BF4FF0010B19EB0B09A8
:100CC00048EB0608ABFB027C06FB02CC0BFB03CC1B
:100CD000C01B71EB0C01C1E70B460246414648467A
:100CE000BDE8F08B13B5084318BF4FF0FF30014645
:100CF000AFF30080BDE81C4070474FF0000200B524
:100D0000134694469646203922BFA0E80C50A0E82E
:100D10000C50B1F12001BFF4F7AF090728BFA0E8DC
:100D20000C5048BF0CC05DF804EB890028BF40F8A8
:100D3000042B08BF704748BF20F8022B11F0804FEA
:100D400018BF00F8012B704780B540F21410C2F2B2
:100D5000000090ED030A9FED171AB4EE410AF1EE80
:100D600010FA10DBFFE740F2E800C2F20000016871
:100D7000013101600068642804DBFFE7002008F00F
:100D800055FEFFE715E040F21410C2F2000090EDAE
:100D9000030A9FED081AB4EE410AF1EE10FA07DAE1
:100DA000FFE740F2E800C2F2000000210160FFE727
:100DB000FFE780BD0000C84280B540F21410C2F2C7
:100DC0000000007F00285DD1FFE740F29C00C2F2E6
:100DD00000000088B0F5FA6F1BDBFFE740F2A000CF
:100DE000C2F20000006840F21411C2F20001086172
:100DF00040F2A400C2F200000068486140F2A8007E
:100E0000C2F20000006888610120087708F046FF00
:100E100037E040F21410C2F2000090ED000A9FED9E
:100E20001A1A80EE010A40F2A001C2F2000191ED0F
:100E3000002A32EE000A81ED000A90ED010A80EEF0
:100E4000010A40F2A401C2F2000191ED002A32EE43
:100E5000000A81ED000A90ED020A80EE010A40F2DC
:100E6000A800C2F2000090ED001A31EE000A80EDF9
:100E7000000A40F29C00C2F20000018801310180AA
:100E8000FFE7FFE780BD00BF0000FA44B0B582B0C5
:100E900001900198012824D1FFE741F6AC54C2F239
:100EA00000042068816841F00101816041F6F4503E
:100EB000C2F2000001688A6842F001028A6041F6CD
:100EC0003C65C2F2000529688A6842F001028A6026
:100ED00001F0DEFF284601F0DBFF204601F0D8FFDD
:100EE00027E0019820BBFFE741F6AC54C2F20004B2
:100EF0002068816821F00101816041F6F450C2F25E
:100F0000000001688A6822F001028A6041F63C65AF
:100F1000C2F2000529688A6822F001028A6002F0A4
:100F200075F8284602F072F8204602F06FF8FFE7E5
:100F3000FFE741F6AC50C2F20000806B0068016828
:100F400021F01801016041F6F450C2F20000806BFC
:100F50000068016821F01801016041F63C60C2F2AE
:100F60000000806B0068016821F01801016002B088
:100F7000B0BD000080B582B001900198C06B0090B8
:100F80000098006C10F0500F3AD1FFE70098016C08
:100F900041F40071016400980068806810F0405FBF
:100FA0002AD1FFE70098806930BBFFE7009800680E
:100FB000C06A10F4700F07D0FFE7009800688068DF
:100FC0004005002818D4FFE700980068416821F028
:100FD000200141600098016C21F480710164009847
:100FE000006CC004002806D4FFE70098016C41F0B3
:100FF00001010164FFE7FFE7009802F06DF910E0DE
:101000000098006CC006002804D5FFE7009802F0A5
:101010006BF905E00098806B016D01988847FFE748
:10102000FFE702B080BD000080B582B0019001985A
:10103000C06B00900098402101640098416C41F021
:1010400004014164009802F04FF902B080BD000035
:1010500080B582B001900198C06B0090009802F0BA
:101060003FF902B080BD0000B0B540F21030C2F2CE
:101070000000018801310180008840F6B8318842C3
:1010800007DBFFE740F21030C2F20000C821018008
:10109000FFE740F21030C2F20000008845F6294117
:1010A000CCF28F2148434FEAF0004AF61461C0F2B7
:1010B0004711884211D8FFE740F21030C2F2000019
:1010C0000088C82809DBFFE741F68460C2F200000F
:1010D00004F0E2FB00F0F0FAFFE701F081FCFFF71B
:1010E0006BFE40F28520C2F200000078012840F03B
:1010F000D181FFE740F21410C2F20000007F002807
:1011000000F0C881FFE701F06DFB40F28420C2F2DD
:10111000000000780138032800F2BB81DFE810F0FE
:10112000040051009500000109F0F6FE40F2E000D5
:10113000C2F20000016801310160006833283FDB22
:10114000FFE7FFE740F2BC00C2F2000001684A1C62
:10115000026059BBFFE740F2BC00C2F20000002170
:10116000016040F21C04C2F20004206840F2C03169
:10117000C2F2000191ED030AB6EE001A20EE010A58
:101180009FEDCE1A80EE010A9FEDCD1A20EE010AE6
:10119000BDEEC00A10EE102A4DF2BA61C0F6000191
:1011A000FFF7E6F8216808442060FFE709F0CEFC6D
:1011B000FFE740F2E000C2F2000000210160FFE71B
:1011C00067E108F07DFF40F21410C2F2000090EDDC
:1011D000130A00F073FD40F2DC00C2F20000016867
:1011E00001310160006833282EDBFFE7FFE740F2A2
:1011F000C000C2F2000001684A1C0260D1B9FFE7DA
:1012000040F2C000C2F200000021016040F21C0464
:10121000C2F20004206840F2C031C2F200010A8824
:101220004DF2BA61C0F60001FFF7A2F82168084448
:101230002060FFE709F08AFCFFE740F2DC00C2F221
:10124000000000210160FFE723E108F04BFC40F2C1
:101250001410C2F2000090ED130A00F02FFD40F2CE
:10126000D800C2F200000168013101600068332833
:1012700055DBFFE7FFE740F2C400C2F2000001685F
:101280004A1C0260D1B9FFE740F2C400C2F200007C
:101290000021016040F21C04C2F20004206840F208
:1012A0002831C2F200010A684DF26851C0F600010F
:1012B000FFF75EF8216808442060FFE709F046FC6C
:1012C000FFE7FFE740F2C800C2F2000001684A1CD5
:1012D0000260D1B9FFE740F2C800C2F2000000216D
:1012E000016040F21C04C2F20004206840F2C031E8
:1012F000C2F200010A884DF2BA61C0F60001FFF7A0
:1013000037F8216808442060FFE709F01FFCFFE779
:1013100040F2D800C2F2000000210160FFE7B8E00F
:101320000AF052F840F21410C2F2000090ED130AD5
:1013300000F0C4FC40F2E400C2F200000168013198
:10134000016000683328C0F2A380FFE7FFE740F2A6
:10135000CC00C2F2000001684A1C026019BBFFE722
:1013600040F2CC00C2F200000021016040F21C04F7
:10137000C2F20004206840F21411C2F2000191EDA3
:10138000120A9FED651A20EE010ABDEEC00A10EEAA
:10139000102A4DF26851C0F60001FEF7E9FF2168FE
:1013A00008442060FFE709F0D1FBFFE7FFE740F2C8
:1013B000D000C2F2000001684A1C026071BBFFE766
:1013C00040F2D000C2F200000021016040F21C0592
:1013D000C2F200052C6840F24820C2F20000006909
:1013E0000BF0DAFB41EC100B9FED491B53EC112B7A
:1013F00051EC100B0BF0D2FA41EC100B51EC100B2E
:101400000BF00EFA02464DF26851C0F6000120467C
:10141000FEF7AEFF296808442860FFE709F096FB55
:10142000FFE7FFE740F2D400C2F2000001684A1C67
:10143000026019BBFFE740F2D400C2F200000021B5
:10144000016040F21C04C2F20004206840F2141152
:10145000C2F2000191ED130A9FED2F1A20EE010A4E
:10146000BDEEC00A10EE102A4DF2BA61C0F60001BE
:10147000FEF77EFF216808442060FFE709F066FB65
:10148000FFE740F2E400C2F2000000210160FFE744
:10149000FFE728E040F28520C2F200000078032830
:1014A00003D1FFE707F074FE1CE040F28520C2F292
:1014B00000000078042814D104E000BFDB0F49408D
:1014C0000000C84209F06CF801F08CF909F024FD25
:1014D00040F21410C2F2000090ED130A00F0EEFB8F
:1014E000FFE7FFE7FFE741F6AC50C2F200000068FB
:1014F0006FF00401016041F6F450C2F20000006890
:10150000016041F63C60C2F2000000680160B0BDBD
:101510000000000000408F4000007A4482B001903B
:1015200042F20030C4F2010000900098416821F4BA
:10153000403141600198406800994A681043486012
:1015400001980068416821F4807141600198016848
:1015500000694A6842EA00204860019800684168D2
:1015600021F0407141600198016880684A68104329
:10157000486001980068816821F4006181600198E9
:101580000168C0688A68104388600198806A0121F8
:10159000C0F60071884219D0FFE7019800688168A1
:1015A00021F07061816001980168806A8A68104347
:1015B000886001980068816821F04051816001983D
:1015C0000168C06A8A68104388600CE0019800686E
:1015D000816821F07061816001980068816821F064
:1015E00040518160FFE701980068816821F00201A5
:1015F00081600198016880698A6842EA40008860D9
:101600000198006AC8B1FFE701980068416841F499
:101610000061416001980068416821F460414160C7
:1016200001980168406A4EF20002CFF6FF7202EBA9
:1016300040304A681043486006E0019800684168FD
:1016400021F400614160FFE701980068C16A21F45C
:101650007001C16201980168C0690022CFF6F07282
:1016600002EB0050CA6A1043C862019800688168A2
:1016700021F40071816001980168006B8A6842EA78
:101680004020886001980068816821F48061816051
:101690000198016840698A6842EA8020886002B047
:1016A00070470000FFE7FEE780B502F0E3FB80BD76
:1016B00080B502F0DFFB80BD10B58AB06C462046D5
:1016C0002821FFF71AFB00200590012106910790C1
:1016D00008910E22099246F220020092019246F6EB
:1016E00020020292039204900891204602F058F9D9
:1016F00018B1FFE7AFF30080FFE704F08BF802209A
:1017000002F06AF84FF4006002F066F84FF480606F
:1017100002F062F84FF4004002F05EF80AB010BD2B
:1017200010B584B040F2EC04C2F20004039404F15A
:101730000800029004F10C00019002F09FFA40F6BC
:101740009C50C2F20000006803990860207E029954
:101750000870E07E0021B1EBD01F0ED1FFE740F210
:10176000EC00C2F20000417E827EC07E000440EAAE
:1017700002200844019908601BE040F2EC00C2F22C
:101780000000C07E0121B1EBD01F11D1FFE740F274
:10179000EC00C2F20000417E827EC07E00F07F003D
:1017A000000440EA02200844404201990860FFE733
:1017B000FFE704B010BD000010B540F2EC00C2F22B
:1017C0000000006959381A2800F2D881DFE810F0CB
:1017D000B201D601D601D601D601D601D6011B0031
:1017E000430069008D00B200DA0002012A015201B3
:1017F0007A01D601D601D601D601D601D601D6018D
:10180000D601D601A20140F2EC04C2F2000420206D
:10181000207240F6D850C2F2000040680BF0BCF9CC
:1018200041EC100B9FEDD61B53EC112B51EC100B20
:101830000BF0B4F841EC100B51EC100B0AF0F0FF78
:101840006061207A6169042240F2812300F0A2F9EC
:101850000020206193E140F2EC04C2F20004212058
:10186000207240F2C030C2F2000090ED030AB6EEE2
:10187000001A20EE010A9FEDC61A80EE010A9FEDC4
:10188000C31A20EE010ABDEEC00A84ED050A207AD3
:101890006169042240F2812300F07CF9002020617C
:1018A0006DE140F2EC04C2F200042220207240F20A
:1018B0002830C2F2000090ED000AB8EEC00A9FED99
:1018C000B21A20EE010A9FEDB11A20EE010ABDEE18
:1018D000C00A84ED050A207A6169042240F281235E
:1018E00000F058F90020206149E140F2EC04C2F216
:1018F00000042320207240F2C030C2F200000088B1
:1019000000EE100AB8EE400A9FED9F1A20EE010A81
:101910009FED9E1A20EE010ABDEEC00A84ED050A75
:10192000207A6169042240F2812300F033F900201B
:10193000206124E140F2EC04C2F200042420207271
:1019400040F24820C2F2000040690BF025F941EC5A
:10195000100B9FED8B1B53EC112B51EC100B0BF06C
:101960001DF841EC100B51EC100B0AF059FF6061AF
:10197000207A6169042240F2812300F00BF90020F3
:101980002061FCE040F2EC04C2F200042520207249
:1019900040F21410C2F20000806C0BF0FDF841EC34
:1019A000100B9FED771B53EC112B51EC100B0AF031
:1019B000F5FF41EC100B51EC100B0AF031FF6061A8
:1019C000207A6169042240F2812300F0E3F80020CC
:1019D0002061D4E040F2EC04C2F200042620207220
:1019E00040F24820C2F2000080690BF0D5F841ECCB
:1019F000100B9FED631B53EC112B51EC100B0AF0F5
:101A0000CDFF41EC100B51EC100B0AF009FF6061A7
:101A1000207A6169042240F2812300F0BBF80020A3
:101A20002061ACE040F2EC04C2F2000427202072F6
:101A300040F21410C2F20000C06C0BF0ADF841ECA3
:101A4000100B9FED4F1B53EC112B51EC100B0AF0B8
:101A5000A5FF41EC100B51EC100B0AF0E1FE6061A8
:101A6000207A6169042240F2812300F093F800207B
:101A7000206184E040F2EC04C2F2000428202072CD
:101A800040F24820C2F2000000690BF085F841ECFA
:101A9000100B9FED3B1B53EC112B51EC100B0AF07C
:101AA0007DFF41EC100B51EC100B0AF0B9FE6061A8
:101AB000207A6169042240F2812300F06BF8002053
:101AC00020615CE040F2EC04C2F2000429202072A4
:101AD00040F6B850C2F2000000680BF05DF841EC2F
:101AE000100B9FED271B53EC112B51EC100B0AF040
:101AF00055FF41EC100B51EC100B0AF091FE6061A8
:101B0000207A6169042240F2812300F043F800202A
:101B1000206134E040F2EC04C2F200043320207271
:101B2000207A616901224FF4207300F033F800201D
:101B3000206124E040F2EC04C2F20004192020727B
:101B400040F21430C2F2000090ED000AB8EE400AF4
:101B50009FED0D1A20EE010A9FED0C1A20EE010AEE
:101B6000BDEEC00A84ED050A207A6169042240F2C4
:101B7000812300F00FF80020206100E0FFE710BD96
:101B80000000000000408F40000000380000804549
:101B9000DB0F494080B586B08DF8170004918DF8B1
:101BA0000F2002930498002800D400E040420190E6
:101BB000029840F6E851C2F2000108600020486037
:101BC0008860C8609DF80F0008619DF8170040F21A
:101BD000EC01C2F2000181F820000498002823D40F
:101BE000FFE701208DF80300FFE79DF803009DF853
:101BF0000F100139884216DCFFE701989DF80310A9
:101C00006FF0070202EBC102D04040F2EC02C2F2D8
:101C10000002114481F82000FFE79DF80300013025
:101C20008DF80300E1E742E00498B0F1FF3F3DDCAE
:101C3000FFE701208DF80200FFE79DF802009DF804
:101C40000F100139884230DCFFE701989DF802103F
:101C50006FF0070202EBC102D04040F2EC02C2F288
:101C60000002114481F820009DF802009DF80F1039
:101C70000139884212D1FFE701989DF802106FF0F8
:101C8000070202EBC102D04040F0800040F2EC02BB
:101C9000C2F20002114481F82000FFE7FFE79DF83F
:101CA000020001308DF80200C7E7FFE7FFE701F00F
:101CB000B9FD012001F090FD06B080BD82B08DED30
:101CC000010A40F6D850C2F20000043000909DEDA9
:101CD000010AB2EE051A20EE010A9FED041A20EE69
:101CE000010A009880ED000A02B070477CAE523ABB
:101CF00080B584B08DED030ACDED020A40F21410D8
:101D0000C2F2000000F140010191443000909DEDCD
:101D1000030ADDED020A019800990AF05BF904B0AC
:101D200080BD00000000000010B588B08DED070AEE
:101D3000002406940594ADF81240ADF81040ADF8BB
:101D40000E40ADF80C4040F60150C4F25010029025
:101D500040F2C030C2F200000021C4F2C0110163A1
:101D6000022006F005FB012007F060FE4DF26C50EA
:101D7000C0F6000008F0C6FB08F09CFEADF8064077
:101D8000FFE7BDF80600B0F5B47F76DCFFE79DED18
:101D9000070ABDF8060001EE100AB8EE411ADFEDA1
:101DA000E10A06A805A905F0B1FC9DED060ADDEDE6
:101DB000050A08F0F7FE052006F0DAFA00F042FD09
:101DC000BDF8060000EE100AB8EE400A40F27010AE
:101DD000C2F20000018840F27412C2F2000202EB6B
:101DE000810181ED000A40F2C031C2F20001098890
:101DF00000EE101AB8EE400A018840F2D812C2F282
:101E0000000202EB810181ED000A018801310180AD
:101E1000FFE740F26410C2F2000001684A1C026051
:101E2000E1B9FFE740F26410C2F200000021016056
:101E300040F21C04C2F200042068BDF8062040F203
:101E4000C031C2F200010B884DF2A261C0F6000160
:101E5000FEF78EFA216808442060FFE708F076FE5E
:101E6000FFE708F027FE642006F082FAFFE7BDF8DE
:101E700006000F30ADF8060083E700208DF805005E
:101E8000FFE79DF80500182840DCFFE79DF80500F6
:101E900040F2D811C2F2000101EB800090ED000A7F
:101EA00090ED011A30EE410A9FEDAF1AB4EE410AEF
:101EB000F1EE10FA23DDFFE700208DF80400FFE7C4
:101EC0009DF804009DF80510884217DCFFE79DF897
:101ED000040040F2D811C2F2000101EB800090ED45
:101EE000000A9FEDA51A30EE010A80ED000AFFE717
:101EF0009DF8040001308DF80400E1E707E0FFE7FA
:101F00009DF8050001308DF80500BAE7FFE740F2C3
:101F10003C20C2F20000009040F27410C2F20000B7
:101F200040F2D811C2F2000140F24024C2F2000493
:101F30001922234606F042FA94ED000A9FED8B1A0F
:101F400031EE400A10EE100A0AF026FE41EC100BAA
:101F500051EC100B9FED7E0B53EC102BDA0F62F35C
:101F6000DF7141EC100B51EC100B9FED7B0B53EC30
:101F7000102B0AF0BDFA41EC100B51EC100B0AF0DB
:101F800079FA40F24421C2F200010860FFE740F212
:101F90006810C2F2000001684A1C026019BBFFE72A
:101FA00040F26810C2F200000021016040F21C04FF
:101FB000C2F20004206840F24421C2F2000191ED17
:101FC000000A9FED6B1A20EE010ABDEEC00A10EE6A
:101FD000102A4DF2EC51C0F60001FEF7C9F9216854
:101FE00008442060FFE708F0B1FDFFE708F062FD5C
:101FF000642006F0BDF940F24420C2F200000068FF
:102000000AF0CAFD41EC100B9FED551B53EC112B50
:1020100051EC100B0AF007FE48B9FFE74DF2C9502A
:10202000C0F6000008F06EFA08F044FD89E04DF2B9
:10203000BF60C0F6000008F065FA08F03BFD9DEDBA
:10204000070A06A805A9DFED4B0AB0EE601A05F0F5
:102050005DFB9DED060ADDED050A08F0A3FD00F02D
:10206000F1FB0020ADF80C00FFE7BDF80C00C7281D
:1020700065DCFFE7BDF81200ADF8100040F2C0309B
:10208000C2F200000088ADF81200BDF80C0065280F
:102090004BDBFFE7BDF81200BDF81010401A00B28C
:1020A000002800D400E0404204283EDCFFE7BDF8F1
:1020B0000E000130ADF80E00BDF80E001F2833DB16
:1020C000FFE7BDF8120040F2C031C2F200010887FC
:1020D000FFE740F26C10C2F2000001684A1C026087
:1020E000D1B9FFE740F26C10C2F20000002101609C
:1020F00040F21C04C2F20004206840F2C031C2F277
:1021000000010A8F4DF2FF61C0F60001FEF730F9C1
:10211000216808442060FFE708F018FDFFE708F099
:10212000C9FC0DE000000000FFE7052006F020F9E3
:10213000FFE7BDF80C000130ADF80C0095E7FFE7B4
:10214000FFE7002007F072FC08B010BD00BF00BF21
:10215000000000000000000000000020A0012A4054
:102160009A9999999999B93F00409C46010D50411F
:102170000000C84200000000000000C7B0B586B0F3
:102180008DED050ACDED040A8DED031ACDED021A91
:1021900040F24825C2F2000505F11400019005F156
:1021A0001800009095ED000AF1EE400A04A808F02E
:1021B00059FC9DED050A9DED031A30EE410A85EDAF
:1021C000070A9DED040A9DED021A30EE410A85EDE5
:1021D000080A05F1240095ED070A95ED091A9FED0F
:1021E000362A20EE020A30EE010A85ED090A05F1D1
:1021F000280495ED080A95ED0A1A20EE020A30EE41
:10220000010A85ED0A0A95ED0C0AB2EE081A81EE74
:10221000000AF1EE400A08F025FC95ED0E0AB1EE39
:10222000081A81EE000AF1EE400A204608F01AFC76
:1022300095ED070A95ED091A95ED0B2A95ED0C3AE7
:1022400023EE011A22EE000A30EE010A019880ED19
:10225000000A95ED080A95ED0A1A95ED0D2A95EDFF
:102260000E3A23EE011A22EE000A30EE010A00981F
:1022700080ED000A019890ED000A009890ED001A98
:1022800021EE011A20EE000A30EE010A40F2C030C1
:10229000C2F2000090ED0C1A21EE011AB0EE082AED
:1022A00081EE021AB4EE410AF1EE10FA01DDFFE709
:1022B000FFE706B0B0BD00BF17B7513840F2482065
:1022C000C2F200004EF26151C3F6D051C16200214A
:1022D000C4F2B911016349F6BE72C3F6BA52426341
:1022E000816340F2C031C2F200010022C4F2400218
:1022F0004A628A620022C4F2C0120A6340F21411D8
:10230000C2F2000100220A614A618A610A77002153
:10231000C4F2A0110160704780B541F6BC60C2F202
:10232000000003F041FB80BD80B541F62070C2F291
:10233000000003F039FB80BD82B001900198007865
:1023400010384AF6AB21CAF6AA21A0FB0101080900
:10235000009000984CF65351C0F60001085C0199BA
:1023600008660098042807D3FFE701980168042253
:1023700062F30901C16506E00198016840F2FF328D
:102380009143C165FFE70198C06D02B0704700003E
:1023900083B00290002001900298806A0090029819
:1023A0008069F0B9FFE70098032818D8DFE800F04B
:1023B000020C0216029890F82F00C00718B1FFE730
:1023C00001200190FFE70BE00298C06AB0F1C07FE6
:1023D00003D1FFE701200190FFE701E000E0FFE704
:1023E0003CE002988069B0F5005F20D1FFE70098DB
:1023F00003281AD8DFE800F00205020F012001903F
:1024000014E0029890F82F00C00718B1FFE70120F0
:102410000190FFE70AE00298C06AB0F1C07F03D1E3
:10242000FFE701200190FFE700E0FFE715E00098DB
:10243000032803D3FFE7032803D00CE00120019019
:102440000AE0029890F82F00C00718B1FFE70120BA
:102450000190FFE700E0FFE7FFE7FFE7019803B027
:102460007047000084B0039002910192009303989A
:102470000068016821F480210160009803990968CF
:10248000486003988068402809D1FFE701980399C4
:1024900009688860029803990968C86008E0029892
:1024A000039909688860019803990968C860FFE783
:1024B00004B070477047000080B540F28420C2F23B
:1024C00000000078013803281BD8DFE800F002077D
:1024D0000E13FFF7F3FE08F011FE12E0FFF7EEFE19
:1024E00008F00CFE07F08EFF0BE0FFF7E7FE07F0A9
:1024F00089FF06E009F05EF8FFF7E0FE08F0FEFD58
:10250000FFE780BD10B540F28420C2F20000012434
:102510000470FFF7D1FF40F2C030C2F2000041F674
:102520004141018740F24820C2F200000021C4F27C
:102530001631016040F21231C2F200010C704DF20E
:10254000FE41C3F6F84141630021C4F2C801816332
:1025500044F29632C3F60B52C262016340F6B850A1
:10256000C2F2000049F69561C4F2EB41016043F20A
:102570003331C3F6337181614FF07C51C161002169
:10258000C4F296318160C16040F6D850C2F20000BA
:102590004DF20A71C3F6234101604DF28760C0F627
:1025A000000007F0AFFF07F079FB40F21030C2F2F5
:1025B000000000210180012007F038FA10BD000062
:1025C00080B505F007FA18B1FFE705F01DF9FFE740
:1025D00080BD000080B508F0B9FE40F2C030C2F204
:1025E0000000C18F090BC187C08F072801D0FFE70A
:1025F00001E0FFE7FFE780BD81B00020009040F2DE
:10260000C030C2F200000188028F891A00EE101A51
:10261000B8EEC00A9FED0B1A80EE010A9FED0A1A70
:1026200020EE010A80ED040A90ED040A80EE010A12
:1026300030EE000A9FED051A20EE010A80ED050A32
:1026400001B07047004892450000B443DB0F494099
:1026500083B00A20ADF80A0000200190009040F2FB
:10266000C030C2F20000406900909DED000A40F2C7
:10267000B420C2F2000090ED001A30EE410A8DED58
:10268000010A00990160FFE79DED010A01209FED1D
:102690004F1AB4EE410AF1EE10FA0CDCFFE79DEDA3
:1026A000010A9FED4B1A0020B4EE410AF1EE10FA38
:1026B000B8BF0120FFE7C00740B3FFE79DED010A67
:1026C0009FED421AB4EE410AF1EE10FA09DDFFE780
:1026D0009DED010A9FED421A30EE010A8DED010ACF
:1026E00013E09DED010A9FED3A1AB4EE410AF1EEB6
:1026F00010FA09DAFFE79DED010A9FED381A30EE76
:10270000010A8DED010AFFE7FFE7BDE740F2BC20BB
:10271000C2F20000018840F28822C2F2000252F8A0
:10272000211040F2B823C2F2000319609DED010AA6
:102730009FED281A80EE010A018802EB810181EDEC
:10274000000A40F2C021C2F2000191ED000A93EDAF
:10275000001A30EE410A038802EB830292ED001A60
:1027600030EE010A81ED000A91ED000AB2EE041A82
:1027700080EE010A40F2B02CC2F2000C8CED000A8F
:102780000288013249F69A13C1F69913A2FB03316C
:1027900001EB8101A2EB41010180DCF8000040F275
:1027A000C031C2F20001886191ED060AB6EE001A4E
:1027B00020EE010A9FED051A80EE010A9FED061A30
:1027C00020EE010A81ED070A03B07047DB0F494094
:1027D000DB0F49C017B751380000B443DB0FC940C5
:1027E000DB0FC9C080B500F02DF8FFF705FFFFF73C
:1027F0002FFFFFF7EFFE80BD40F2C030C2F20000B5
:10280000018800EE101AB8EE400A9FED0B1A20EE78
:10281000010A9FED0A2A20EE020A80ED010A90EDDE
:10282000010A80EE010A30EE000A9FED051A20EE43
:10283000010A80ED020A70470000B443000000382E
:10284000DB0F494080B548F2210008F08BFD6FF3A3
:10285000DF3040F2C031C2F20001088080BD0000CC
:1028600083B00A20ADF80A0000200190009040F2E9
:10287000C030C2F20000806800909DED000A40F276
:10288000F020C2F2000090ED001A30EE410A8DED0A
:10289000010A00990160FFE79DED010A01209FED0B
:1028A000471AB4EE410AF1EE10FA0CDCFFE79DED99
:1028B000010A9FED431A0020B4EE410AF1EE10FA2E
:1028C000B8BF0120FFE7C00740B3FFE79DED010A55
:1028D0009FED3A1AB4EE410AF1EE10FA09DDFFE776
:1028E0009DED010A9FED391A30EE010A8DED010AC6
:1028F00013E09DED010A9FED321AB4EE410AF1EEAC
:1029000010FA09DAFFE79DED010A9FED2F1A30EE6C
:10291000010A8DED010AFFE7FFE7BDE740F2F8206D
:10292000C2F20000018840F2C422C2F2000252F852
:10293000211040F2F423C2F2000319609DED010A58
:102940009FED201A80EE010A018802EB810181EDE2
:10295000000A40F2FC21C2F2000191ED000A93ED61
:10296000001A30EE410A038802EB830292ED001A4E
:1029700030EE010A81ED000A91ED000AB2EE041A70
:1029800080EE010A40F2EC2CC2F2000C8CED000A41
:102990000288013249F69A13C1F69913A2FB03315A
:1029A00001EB8101A2EB41010180DCF8000040F263
:1029B000C031C2F20001C86003B07047DB0F49406C
:1029C000DB0F49C06E12033ADB0FC940DB0FC9C0F1
:1029D00080B5FFF711FFFFF743FF00F061F880BDFE
:1029E00080B541F6AC5CC2F2000CDCF80010C96B9B
:1029F00040F2B002C2F20002116041F6F451C2F29C
:102A000000010968C96B40F2B403C2F20003196007
:102A100041F63C61C2F200010968C96B40F2B8009E
:102A2000C2F20000016093ED000AB8EE400A9FED8B
:102A30001A1A20EE010A9FED192A30EE020A40F21E
:102A40001411C2F2000181ED010A90ED000AB8EE06
:102A5000400A20EE010A30EE020A81ED020A92EDF0
:102A6000000AB8EE400A20EE010A30EE020A81EDBB
:102A7000000ADCF80000006C40F2AC02C2F2000276
:102A8000106092ED000AB8EE400A20EE010A81EDD6
:102A9000030AFEF759F980BD00404E3E0040CEC308
:102AA00081B00020009040F2C030C2F200000088E7
:102AB00040F22C31C2F2000108600868B0F5804F86
:102AC00009DDFFE740F22C30C2F200000168A1F5F9
:102AD00000410160FFE740F22C30C2F200000068C4
:102AE00010F5804F09DCFFE740F22C30C2F2000005
:102AF000016801F500410160FFE740F22C30C2F2AD
:102B00000000006840F23031C2F200010968401A4A
:102B10000090FFE70099012011F5804F07DDFFE7E6
:102B200000990020B1F5804FC8BF0120FFE7C00722
:102B3000B0B1FFE7009810F5804F05DCFFE7009883
:102B400000F5004000900AE00098B0F5804F05DDE8
:102B5000FFE70098A0F500400090FFE7FFE7D9E706
:102B600040F22C30C2F20000006840F23031C2F274
:102B700000010860009840F22831C2F200010A68A2
:102B8000104408600868B0F1FA6F07DDFFE740F213
:102B90002830C2F200000021016010E040F228302D
:102BA000C2F20000006810F1FA6F07DAFFE740F2A6
:102BB0002830C2F2000000210160FFE7FFE701B00A
:102BC0007047000084B0029001910198C069012112
:102BD000C0F20F01884201D0FFE7FFE7FFE702984C
:102BE000C06B012803D1FFE7022003904CE102985B
:102BF0000121C163FFE7FFE7019800680A281CD3A1
:102C0000FFE70198008800EB40001E38072101FA19
:102C100000F002990968CA6822EA0000C8600198B9
:102C20008168008800EB40001E3801FA00F002992C
:102C30000968CA681043C86019E00198008800EB71
:102C40004000072101FA00F0029909680A6922EAA6
:102C50000000086101988168008800EB400001FADB
:102C600000F0029909680A6910430861FFE70298B9
:102C70000068816B21F44011816301980069002193
:102C8000CFF6F07101EB0050029909688A6B10438E
:102C90008863019841680069081A0330C1B289004D
:102CA00051FA80F01F2101FA00F0029909688A6B3D
:102CB00022EA000088630198018842680069101ABE
:102CC0000330C2B2920052FA80F001FA00F0029989
:102CD00009688A6B104388630198C0690121C0F2BA
:102CE0000F0188421BD0FFE702980068816821F439
:102CF000702181600198C069029909688A6810434F
:102D0000886002980068816821F440118160019810
:102D1000006A029909688A68104388600CE002988A
:102D20000068816821F470218160029800688168E0
:102D300021F440118160FFE70198806938B1FFE715
:102D400002980068416841F48061416006E00298A1
:102D50000068416821F480614160FFE701984069A3
:102D600038B1FFE702980068416841F48051416042
:102D700006E002980068416821F480514160FFE755
:102D800001984068012806D0FFE7022812D0FFE72B
:102D900003281ED02CE002980068416940F6FF72BB
:102DA000914341610198C068029909684A691043DA
:102DB00048612CE002980068816940F6FF729143F7
:102DC00081610198C068029909688A691043886125
:102DD0001DE002980068C16940F6FF729143C1612D
:102DE0000198C06802990968CA691043C8610EE079
:102DF00002980068016A40F6FF72914301620198EF
:102E0000C068029909680A6A10430862FFE742F243
:102E10000030C4F2010000900298006842F2000104
:102E2000C4F2010188420BD1FFE701980068122823
:102E300006D1FFE70098416841F480014160FFE757
:102E40000298006842F20001C4F20101884213D1E5
:102E5000FFE7019800681221C1F20001884205D005
:102E6000FFE701980068112806D1FFE70098416844
:102E700041F400014160FFE7FFE702980021C163D0
:102E8000FFE700200390FFE7039804B070470000BD
:102E900086B004900020039002900190FFE7049810
:102EA000C06B012803D1FFE702200590ABE0049836
:102EB0000121C163FFE7FFE704980068806800F024
:102EC000010001281ED0FFE704980068816841F0E6
:102ED0000101816040F21000C2F2000000684DF66E
:102EE0008361C4F21B31A0FB0101880C00EB4000A0
:102EF0000390FFE7039820B1FFE7039801380390A0
:102F0000F8E7FFE7049800688068C007002877D0DA
:102F1000FFE70498006C40F4805042F201018843BE
:102F2000049908640498006CC005002804D4FFE7E5
:102F3000049800214164FFE7FFE704980021C16382
:102F4000FFE7049800686FF00401016004980068CE
:102F5000416841F08001416042F20030C4F201005A
:102F6000009000984068C00600BBFFE70498006826
:102F7000806800F44010B0FA80F040090290049894
:102F80000068406800F48060012181EA902001908F
:102F9000029850B1FFE7019838B1FFE70498006844
:102FA000816841F480018160FFE728E004980068AF
:102FB000806800F44010B0FA80F040090290049854
:102FC0000068406800F48060012181EA902001904F
:102FD0000498006842F20001C4F2010188420DD158
:102FE000FFE7029850B1FFE7019838B1FFE7049876
:102FF0000068816841F480018160FFE7FFE7FFE737
:1030000000200590FFE706B07047000083B00190F4
:1030100000200090FFE70198C06B012803D1FFE773
:10302000022002903DE001980121C163FFE7FFE724
:103030000198006CC005002823D4FFE701980068C0
:103040004068400500281CD4FFE7019800688168AB
:1030500021F001018160019800688068C00778B99B
:10306000FFE701980068416821F080014160019804
:10307000006C40F0010020F4885001990864FFE7DB
:1030800007E00198016C41F02001016401200090EB
:10309000FFE7FFE701980021C163FFE70098029076
:1030A000FFE703B07047000085B003900291002055
:1030B0000190FFE70398C06B012803D1FFE70220CE
:1030C000049006E103980121C163FFE7FFE702983E
:1030D00000680A281CD3FFE70298008800EB400034
:1030E0001E38072101FA00F003990968CA6822EA2C
:1030F0000000C86002988168008800EB40001E381C
:1031000001FA00F003990968CA681043C86019E021
:103110000298008800EB4000072101FA00F00399B3
:1031200009680A6922EA000008610298816800883B
:1031300000EB400001FA00F0039909680A691043A6
:103140000861FFE70298406806281CD8FFE702984C
:10315000406800EB800005381F2101FA00F0039958
:1031600009684A6B22EA00004863029801884068B7
:1031700000EB8000053801FA00F0039909684A6BFA
:10318000104348633DE0029840680C281CD8FFE7D4
:103190000298406800EB800023381F2101FA00F0FC
:1031A000039909680A6B22EA000008630298018803
:1031B000406800EB8000233801FA00F003990968A9
:1031C0000A6B104308631BE00298406800EB800024
:1031D00041381F2101FA00F003990968CA6A22EAFE
:1031E0000000C86202980188406800EB8000413806
:1031F00001FA00F003990968CA6A1043C862FFE740
:10320000FFE742F20030C4F201000090039800682A
:1032100042F20001C4F20101884210D1FFE7029896
:10322000006812280BD1FFE70098416821F40001E3
:1032300041600098416841F480014160FFE70398D4
:10324000006842F20001C4F20101884239D1FFE76F
:10325000029800681221C1F20001884205D0FFE700
:103260000298006811282CD1FFE70098416821F4EA
:10327000800141600098416841F40001416002987A
:1032800000681221C1F20001884219D1FFE740F223
:103290001000C2F2000000684DF68361C4F21B31D9
:1032A000A0FB0101880C00EB800040000190FFE7CB
:1032B000019820B1FFE7019801380190F8E7FFE796
:1032C000FFE7FFE703980021C163FFE700200490B8
:1032D000FFE7049805B0704781B0009001B07047D7
:1032E00081B0009001B0704781B0009001B070478C
:1032F00080B584B0029000200190029818B9FFE7D1
:10330000012003903DE00298806A0121C0F600711F
:10331000884201D0FFE7FFE70298006C48B9FFE759
:10332000029800F031F80298002141640298C163CC
:10333000FFE70298006CC006002817D4FFE7029848
:10334000006C40F0020020F4885002990864029852
:10335000FEF7E4F80298002141640298006C40F006
:10336000010020F002000299086402E001200190AF
:10337000FFE7FFE702980021C163FFE70198039090
:10338000FFE7039804B080BD70B58EB00D900020AB
:103390000C900B900A90099008900D98006842F2EA
:1033A0000001C4F20101884254D1FFE7FFE7002089
:1033B000079043F64400C4F20200016841F48071B2
:1033C0000160006800F4807007900798FFE7FFE74E
:1033D0000020069043F63000C4F20200016841F07C
:1033E00004010160006800F0040006900698FFE701
:1033F000FFE70020059043F63000C4F202000168A8
:1034000041F001010160006800F00100059005989D
:10341000FFE7022008900325099500260A9640F64A
:103420000000C4F2020008AC214602F04FFE10205A
:10343000089009950A960020C4F20200214602F085
:1034400045FE12200021002203F090F8122003F024
:1034500085F8B0E00D98006842F20011C4F2010155
:10346000884238D1FFE7FFE70020049043F644008C
:10347000C4F20200016841F400710160006800F4C8
:10348000007004900498FFE7FFE70020039043F6E4
:103490003000C4F20200016841F0040101600068DC
:1034A00000F0040003900398FFE704200890032035
:1034B000099000200A9040F60000C4F2020008A91A
:1034C00002F004FE12200021002203F04FF8122027
:1034D00003F044F86EE00D98006842F20021C4F257
:1034E0000101884265D1FFE7FFE70020029043F623
:1034F0004400C4F20200016841F480610160006888
:1035000000F4806002900298FFE7FFE7002001903E
:1035100043F63000C4F20200016841F0040101608A
:10352000006800F0040001900198FFE7092008906E
:103530000320099000240A9440F60000C4F202001F
:1035400008A902F0C3FD41F6BC60C2F2000046F2D9
:103550001041C4F2020101604FF08061416084605B
:10356000C4604FF4806101614FF4006141614FF428
:10357000005181614FF48071C1610462446202F0C4
:10358000A1FB18B1FFE7AFF30080FFE7FFE70D985D
:1035900041F6BC61C2F2000181630D98C863FFE788
:1035A00012200021002202F0E1FF122002F0D6FFDB
:1035B000FFE7FFE7FFE70EB070BD000080B586B003
:1035C00041F63C60C2F20000049040F28800C2F272
:1035D000000003900A20029000200190FFE7049869
:1035E000C06B012803D1FFE702200590F1E00498A9
:1035F0000121C163FFE7FFE704980068806800F0DD
:10360000010001281ED0FFE704980068816841F09E
:103610000101816040F21000C2F2000000684DF626
:103620008361C4F21B31A0FB0101880C00EB400058
:103630000190FFE7019820B1FFE701980138019060
:10364000F8E7FFE7049800688068C007002800F0EA
:10365000BD80FFE70498006C40F4807040F2016187
:10366000884304990864049800684068400500286D
:1036700009D5FFE70498006C40F4805020F4005016
:1036800004990864FFE70498006CC004002806D57C
:10369000FFE70498416C21F00601416403E00498BF
:1036A00000214164FFE7FFE704980021C163FFE7C1
:1036B00042F20030C4F2010000900498806B40F6A2
:1036C0007571C0F6000101640498806B41F25101EC
:1036D000C0F6000141640498806B41F22901C0F6F4
:1036E00000010165049800686FF0220101600498F0
:1036F0000068416841F08061416004980068816819
:1037000041F48071816004980168806B4C31039AA8
:10371000029B02F085FB00984068C006E8BBFFE70B
:103720000498006842F20001C4F20101884224D0EA
:10373000FFE70498006842F20011C4F201018842D8
:1037400008D1FFE742F20430C4F201000068C0066D
:1037500098B1FFE70498006842F20021C4F2010129
:10376000884219D1FFE742F20430C4F20100006838
:1037700000F01F000F280FD8FFE70498006880684A
:1037800010F0405F07D1FFE704980068816841F0BE
:1037900080418160FFE7FFE717E00498006842F28C
:1037A0000001C4F2010188420ED1FFE704980068CD
:1037B000806810F0405F07D1FFE7049800688168D7
:1037C00041F080418160FFE7FFE7FFE700200590BF
:1037D000FFE706B080BD000084B041F68461C2F20C
:1037E0000001029101900298006B0090009801285E
:1037F00004D0FFE70098022809D1FFE70198029959
:1038000009684A69104348610020039007E0029864
:10381000416B41F48021416301200390FFE704B034
:103820007047000088B041F68460C2F20000069044
:1038300040F6E850C2F20000059040F2EC00C2F2FF
:10384000000000F120010491043003900698006B01
:10385000019006980068806800900598806808B913
:10386000FFE700E0FFE70198012805D0FFE7019896
:10387000022840F08B80FFE79DF8030040070028F6
:103880000CD4FFE79DF803000007002806D4FFE7EB
:103890009DF80300C006002870D5FFE70098C0F32C
:1038A000016002900298032808D3FFE70698416B55
:1038B00041F400014163012007906FE0029801216B
:1038C00001FA00F0039908600598806868B9FFE77D
:1038D00005980168C06840EA415006990968029A53
:1038E00001EB0211C1F880010EE005984168826881
:1038F000C06842EAC101084306990968029A01EBCF
:103900000211C1F88001FFE705980069069909686E
:10391000029A01EB0211C1F884010598406901285F
:103920000CD1FFE706980068029900EB0110D0F86F
:10393000841141F48071C0F88411FFE70498406855
:1039400006990968029A01EB0211C1F88C010498EA
:10395000006806990968029A01EB0211C1F8880112
:1039600006980068029900EB0110D0F8801141F030
:103970000101C0F88011002007900FE00698416B0C
:1039800041F4001141630120079007E00698416B64
:1039900041F48021416301200790FFE708B07047A0
:1039A00086B041F68461C2F200010491039004984C
:1039B000006801900498006B00900098012805D0E1
:1039C000FFE70098022840F0B480FFE746F200408D
:1039D000C4F2000001900198D0F8001241F00101FA
:1039E000C0F800120198D0F8001221F47C51C0F800
:1039F00000120398406A0199D1F8002242EA00209F
:103A0000C1F800020398406900F01F00012101FA8B
:103A100000F0029002980199D1F81C2222EA0000DD
:103A2000C1F81C020398C069F8B9FFE70298019930
:103A3000D1F80C2222EA0000C1F80C020398818818
:103A4000C268406941EA0241019A02EBC000C0F835
:103A50004012039801888268406941EA0241019A54
:103A600002EBC000C0F84412FFE70398C0690128C8
:103A70001ED1FFE702980199D1F80C221043C1F83A
:103A80000C02039881880268406941EA0241019A68
:103A900002EBC000C0F84012039881898268406937
:103AA00041EA0241019A02EBC000C0F84412FFE76C
:103AB0000398806948B9FFE702980199D1F8042278
:103AC00022EA0000C1F8040207E002980199D1F847
:103AD00004221043C1F80402FFE70398006948B9C3
:103AE000FFE702980199D1F8142222EA0000C1F8F8
:103AF000140207E002980199D1F814221043C1F88A
:103B00001402FFE70398006A012808D1FFE7029832
:103B10000199D1F81C221043C1F81C02FFE701985B
:103B2000D0F8001221F00101C0F800120020059029
:103B300007E00498416B41F4802141630120059026
:103B4000FFE7059806B0704780B582B041F6846003
:103B5000C2F200000090009818B9FFE70120019020
:103B600012E0009801F098FE009800F061FC0098C7
:103B70000068016841F40041016000980021416340
:103B8000009801630191FFE702B080BD10B582B0DB
:103B90000190FFE740F20030C2F2000001684A1CC9
:103BA0000260B9B9FFE740F20030C2F20000002124
:103BB000016040F21C04C2F20004206801994A6BC3
:103BC0004DF29261C0F60001FCF7D2FB2168084477
:103BD0002060FFE706F0BAFFFFE706F06BFF40F258
:103BE0000430C2F2000001884A1C0280B1F5FA7F5D
:103BF00016DCFFE740F20430C2F200000188013118
:103C00000180FFF7A1FF00F02BFB41F68460C2F2B8
:103C1000000000681021C1600220FFF7DDFD00E018
:103C2000FFE702B010BD000084B041F68460C2F22C
:103C3000000003900020029001900398006B009018
:103C40000098012804D0FFE70098022812D1FFE76E
:103C5000029838B9FFE703980068C06800F00300D5
:103C6000019006E003980068006900F003000190ED
:103C7000FFE7FFE7019804B07047000086B041F607
:103C80008460C2F2000004900020039040F69C5033
:103C9000C2F20000029040F2EC00C2F200001830C4
:103CA00001900498006B00900098012805D0FFE770
:103CB0000098022840F0D480FFE7039878B9FFE726
:103CC00004980068C068800740B9FFE70498416B1A
:103CD00041F40011416301200590C9E00EE0049811
:103CE00000680069800740B9FFE70498416B41F420
:103CF0000011416301200590BAE0FFE704980068D5
:103D0000039900EB0110D0F8B00100F00400029913
:103D100088600298806858B9FFE7049800680399A2
:103D200000EB0110D0F8B001400D029908600AE0E4
:103D300004980068039900EB0110D0F8B001C008A6
:103D400002994860FFE704980068039900EB0110AE
:103D5000D0F8B00100F002000299C8600498006831
:103D6000039900EB0110D0F8B40100F00F000299A4
:103D7000086104980068039900EB0110D0F8B401C1
:103D800080B2000A0299886104980068039900EBE8
:103D90000110D0F8B401000C029948610498006841
:103DA000039900EB0110D0F8B8010199087004984C
:103DB0000068039900EB0110D0F8B801000A0199DE
:103DC000487004980068039900EB0110D0F8B8011E
:103DD000000C0199887004980068039900EB0110A9
:103DE000D0F8B801000E0199C870049800680399D2
:103DF00000EB0110D0F8BC0101990871049800682B
:103E0000039900EB0110D0F8BC01000A0199487138
:103E100004980068039900EB0110D0F8BC01000C75
:103E20000199887104980068039900EB0110D0F89B
:103E3000BC01000E0199C871039838B9FFE70498D6
:103E40000068C16841F02001C16006E00498006884
:103E5000016941F020010161FFE70020059007E0C2
:103E60000498416B41F48021416301200590FFE7F4
:103E700006B0704780B588B041F68460C2F2000099
:103E80000790002006900798006840690590079801
:103E9000006840680490079800688068039007985D
:103EA0000068C06802900798006800690190079850
:103EB0000068806900909DF81400C007002800F099
:103EC0009480FFE79DF80C00C00758B3FFE7079800
:103ED0000068012181609DF80C008007002804D54E
:103EE000FFE7079801F01EFD1BE09DF80C0040075E
:103EF000002805D5FFE7069840F4006006900FE023
:103F00009DF80C000007002805D5FFE7069840F44F
:103F10008050069003E0079801F000FDFFE7FFE7FF
:103F2000FFE7FFE79DF80D00C00760B3FFE70798C4
:103F300000684FF4807181609DF80D0080070028B3
:103F400004D5FFE7079801F0F9FC1BE09DF80D0090
:103F50004007002805D5FFE7069840F4005006907A
:103F60000FE09DF80D000007002805D5FFE7069833
:103F700040F48040069003E0079801F0DBFCFFE787
:103F8000FFE7FFE7FFE79DF80E00C00760B3FFE71C
:103F9000079800684FF4803181609DF80E0080071B
:103FA000002804D5FFE7079801F0D4FC1BE09DF83A
:103FB0000E004007002805D5FFE7069840F40040B2
:103FC00006900FE09DF80E000007002805D5FFE7DA
:103FD000069840F48030069003E0079801F0B6FCA4
:103FE000FFE7FFE7FFE7FFE7FFE79DF814000007A3
:103FF000002810D5FFE79DF80800C006002809D565
:10400000FFE7069840F400700690079800681021BA
:10401000C160FFE7FFE79DF81400400700280FD5B7
:10402000FFE79DF808000007002808D5FFE707987C
:1040300000680821C160079800F086FAFFE7FFE7F3
:104040009DF81400800700280BD5FFE7079800684B
:10405000C068800720B1FFE7079800F079FAFFE712
:10406000FFE79DF814004006002810D5FFE79DF8F3
:104070000400C006002809D5FFE7069840F48060D8
:1040800006900798006810210161FFE7FFE79DF89F
:104090001400800600280FD5FFE79DF804000007F4
:1040A000002808D5FFE707980068082101610798F4
:1040B00001F0A4FBFFE7FFE79DF81400C00600280D
:1040C0000BD5FFE7079800680069800720B1FFE77C
:1040D000079801F097FBFFE7FFE79DF816008007C0
:1040E00000280FD5FFE79DF81000C006002808D56E
:1040F000FFE70798006810214160079801F086FBF0
:10410000FFE7FFE79DF81600C00778B1FFE79DF8CD
:1041100010000007002808D5FFE70798006808216D
:104120004160079801F01EFCFFE7FFE79DF81500CE
:104130000006002840F18580FFE79DF81000400749
:10414000002879D5FFE79DF81500C00750B1FFE7BB
:104150009DF80000C00728B1FFE7069840F0010075
:104160000690FFE79DF81500800700280BD5FFE7B4
:104170009DF800008007002805D5FFE7069840F06D
:1041800002000690FFE79DF81500400700280BD5B8
:10419000FFE79DF800004007002805D5FFE70698D7
:1041A00040F004000690FFE79DF815000007002886
:1041B00041D5FFE79DF8000010F0700F3BD0FFE7FE
:1041C000009800F0700010280FD0FFE7202811D0D1
:1041D000FFE7302813D0FFE7402815D0FFE750282D
:1041E00017D0FFE7602819D01DE0069840F00800BE
:1041F000069019E0069840F01000069014E006982A
:1042000040F0200006900FE0069840F04000069035
:104210000AE0069840F08000069005E0069840F419
:104220008070069000E0FFE707980068816921F040
:1042300070018161FFE7FFE7079800680421416092
:10424000FFE7069848B1FFE7069807994A6B1043C5
:1042500048630798FFF79AFCFFE708B080BD0000AD
:1042600080B584B041F68460C2F2000002900298EA
:1042700018B9FFE701200390D7E00298006B20B93E
:10428000FFE7029800F0F4F8FFE702980068016881
:1042900021F00201016002F0DBF80190FFE70298D3
:1042A000006840688007002813D5FFE702F0D0F8C7
:1042B0000199401A0B280BD3FFE70298416B41F498
:1042C0000031416302980521016301200390ACE0B5
:1042D000E5E702980068016841F00101016002F021
:1042E000B7F80190FFE7029800684068C00798B9E6
:1042F000FFE702F0ADF80199401A0B280BD3FFE756
:104300000298416B41F40031416302980521016339
:104310000120039089E0E6E702988069012807D12F
:10432000FFE702980068016841F08001016006E043
:1043300002980068016821F080010160FFE702989F
:10434000C069012807D1FFE702980068016841F0C1
:104350004001016006E002980068016821F0400118
:104360000160FFE70298006A012807D1FFE7029881
:104370000068016841F02001016006E002980068D1
:10438000016821F020010160FFE70298406A0128DE
:1043900007D1FFE702980068016821F01001016071
:1043A00006E002980068016841F010010160FFE733
:1043B0000298806A012807D1FFE702980068016827
:1043C00041F00801016006E002980068016821F0F0
:1043D00008010160FFE70298C06A012807D1FFE7E2
:1043E00002980068016841F00401016006E002984B
:1043F0000068016821F004010160FFE70298D0F82D
:1044000000C042688368C168194303691943406961
:104410000843511E0843CCF81C0002980021416358
:104420000298012202630391FFE7039804B080BD64
:1044300080B582B001900198006846F20041C4F254
:104440000001884211D1FFE743F64000C4F20200A8
:10445000016821F00071016001F038FD142002F0C4
:1044600075F8152002F072F8FFE702B080BD000079
:104470002DE9F04188B00790002006900590049047
:10448000039002900798006846F20041C4F20001D0
:10449000884255D1FFE7FFE70020019043F6400036
:1044A000C4F20200016841F000710160006800F090
:1044B000007001900198FFE7FFE70020009043F6AD
:1044C0003000C4F20200016841F00101016000689F
:1044D00000F0010000900098FFE74FF400600290A8
:1044E0004FF00208CDF80C800120049003270597B7
:1044F000092606960024C4F2020402AD204629468D
:1045000001F0E4FD4FF480500290CDF80C800020C3
:104510000490059706962046294601F0D7FD142001
:104520000121012202F022F8142002F017F81520D0
:104530000121012202F01AF8152002F00FF8FFE71E
:1045400008B0BDE8F081000081B0009001B0704774
:10455000B0B52DED048B8AB00990FFE7FDF7E0F8C8
:1045600040F2EC00C2F20000006840F201318842E3
:1045700040F0A784FFE740F2EC00C2F20000007AAE
:1045800001389F2800F29A84DFE810F0A000E000D4
:10459000FD001A013701540171018E01B001DD01E6
:1045A000F6010F0251027E02C402F202BF03EC03C5
:1045B00019049804980498049804980498043D04F5
:1045C000980498049804980498049804980498040B
:1045D00098049804980498049804980498049804FB
:1045E00098049804980498049804980498042F0454
:1045F000360498049804980498049804980498043D
:1046000098049804980498049804980498049804CA
:1046100098049804980498049804980498049804BA
:1046200098049804980498049804980498049804AA
:1046300098049804980498049804980491049804A1
:104640009804980498049804980444044B04520471
:104650005904600467046E0475047C0483049804A0
:10466000980498049804980498049804980498046A
:10467000980498049804980498049804980498045A
:10468000980498049804980498049804980498044A
:10469000980498049804980498049804980498043A
:1046A000980498049804980498049804980498042A
:1046B000980498049804980498049804980498041A
:1046C000980498049804980498048A0440F2EC0032
:1046D000C2F20000C068012825D1FFE740F6B850BB
:1046E000C2F200000021016040F24822C2F2000242
:1046F000D1611162D16011615162916201614161C8
:104700000124012005F092F940F2EC01C2F200010F
:10471000502008724C61087A4969042240F28123D2
:10472000FDF738FA11E040F2EC00C2F20000C06878
:1047300050B9FFE740F6B850C2F200000021016016
:10474000002005F073F9FFE7FFE7B8E340F2EC0063
:10475000C2F20000C06808F092F841EC100B9FED27
:10476000E21B53EC112B51EC100B08F017F941EC44
:10477000100B51EC100B07F07DFE40F24821C2F205
:10478000000148639BE340F2EC00C2F20000C06805
:1047900008F075F841EC100B9FEDD31B53EC112B77
:1047A00051EC100B08F0FAF841EC100B51EC100B27
:1047B00007F060FE40F24821C2F2000188637EE308
:1047C00040F2EC00C2F20000C06808F058F841EC7A
:1047D000100B9FEDC51B53EC112B51EC100B08F087
:1047E000DDF841EC100B51EC100B07F043FE40F6E6
:1047F000B851C2F20001886161E340F2EC00C2F2FC
:104800000000C06808F03BF841EC100B9FEDB61BB0
:1048100053EC112B51EC100B08F0C0F841EC100BCD
:1048200051EC100B07F026FE40F6B851C2F2000121
:10483000C86144E340F2EC00C2F20000C06808F036
:104840001EF841EC100B9FEDA81B53EC112B51EC03
:10485000100B08F0A3F841EC100B51EC100B07F013
:1048600009FE40F2B431C2F20001086027E340F2D1
:10487000EC00C2F20000C06808F001F841EC100B37
:104880009FED991B53EC112B51EC100B08F086F89F
:1048900041EC100B51EC100B07F0ECFD40F2B8317D
:1048A000C2F2000108600AE340F2EC00C2F200002C
:1048B00090ED030AB8EEC00A10EE100A08F06CF989
:1048C00041EC100B9FED881B53EC112B51EC100B9E
:1048D00008F064F841EC100B51EC100B07F0CAFD26
:1048E00040F6D851C2F200010860E8E240F2EC0064
:1048F000C2F2000090ED030AB8EEC00A9FED7C1AE8
:1049000020EE010A9FED7B1A20EE010ABDEEC00ADF
:1049100040F20830C2F2000080ED000A90ED000A7B
:10492000B8EEC00A9FED741A20EE010A30EE000ABC
:104930009FED721A20EE010A40F6B850C2F2000054
:1049400080ED000ABBE240F2EC00C2F2000090ED04
:10495000030AB8EEC00A9FED661A20EE010A9FED29
:10496000651A20EE010ABDEEC00A40F21C30C2F208
:10497000000080ED000AA2E240F2EC00C2F200006A
:1049800090ED030AB8EEC00A9FED591A20EE010A15
:104990009FED581A20EE010ABDEEC00A40F21C300D
:1049A000C2F2000080ED000A89E240F2EC00C2F29F
:1049B0000000C068012807D1FFE740F28420C2F25E
:1049C0000000012101702FE040F2EC00C2F2000073
:1049D000C068022807D1FFE740F28420C2F200003D
:1049E000022101701FE040F2EC00C2F20000C0683A
:1049F000032807D1FFE740F28420C2F20000022121
:104A000001700FE040F2EC00C2F20000C068042820
:104A100007D1FFE740F28420C2F2000004210170B8
:104A2000FFE7FFE7FFE7FFE7FDF746FD47E240F25C
:104A3000EC00C2F2000090ED030AB8EEC00A9FED50
:104A40002C1A20EE010A9FED2B1A20EE010ABDEE72
:104A5000C00A40F21430C2F2000080ED000A90ED6E
:104A6000000AB8EE400A9FED241A20EE010A30EE4B
:104A7000000A9FED221A20EE010A40F6B850C2F259
:104A8000000080ED020A1AE240F2EC00C2F20000DF
:104A900090ED030AB8EEC00A9FED151A20EE010A48
:104AA0009FED141A20EE010ABDEEC00A40F2183044
:104AB000C2F2000080ED000A90ED000AB8EE400A54
:104AC0009FED0D1A20EE010A30EE000A9FED0B1A41
:104AD00020EE010A40F6B850C2F2000080ED030A51
:104AE000EDE100BF00BF00BFFCA9F1D24D62503F15
:104AF000000080390000004700000038DB0F49400B
:104B000081420A3C00007544B8CB7EDDE9CEBA3F55
:104B1000CDCC4C3F40F2EC00C2F2000090ED030A15
:104B2000B8EEC00A10EE100A08F036F841EC100B8F
:104B30001FED131B53EC112B51EC100B07F02EFF44
:104B400041EC100B51EC100B07F094FC40F6D851DF
:104B5000C2F20001886091ED020A1FED171A80EE83
:104B6000010A40F24820C2F2000080ED000AA6E1EE
:104B700040F2EC00C2F2000090ED030AB8EEC00A69
:104B80001FED251A20EE010A1FED261A20EE010A5C
:104B9000BDEEC00A40F20C30C2F2000080ED000A07
:104BA00040F28420C2F200000078012808D0FFE71C
:104BB00040F28420C2F20000007802284DD1FFE7C5
:104BC00040F20C30C2F2000090ED000AB8EE400A4C
:104BD0001FED371A20EE010A30EE000A1FED391AD8
:104BE00020EE010A40F6B850C2F2000080ED010A42
:104BF000041D40F2C030C2F2000090ED0C0A1FED1F
:104C00003F1A20EE010A10EE100A07F0C5FF41EC32
:104C1000100B51EC100B1FED440B53EC102B07F055
:104C2000BDFE41EC190B51EC190B07F023FC08EE0B
:104C3000100A8DED009B9DF8070080F080008DF834
:104C400007000098019907F015FC00EE900A204635
:104C5000B0EE480A05F006FF56E040F28420C2F2AA
:104C60000000007804284ED1FFE740F20C30C2F279
:104C7000000090ED000AB8EE400A1FED611A20EE28
:104C8000010A30EE000A1FED631A20EE010A40F619
:104C9000D850C2F2000080ED030A00F10C0440F28B
:104CA000C030C2F2000090ED0C0A1FED6A1A20EE2F
:104CB000010A10EE100A07F06FFF41EC100B51ECE7
:104CC000100B1FED6F0B53EC102B07F067FE41EC40
:104CD000190B51EC190B07F0CDFB08EE100A8DED06
:104CE000029B9DF80F0080F080008DF80F00029865
:104CF000039907F0BFFB00EE900A2046B0EE480A89
:104D000005F0B0FEFFE7FFE7D9E040F2EC00C2F2A9
:104D1000000090ED030AB8EEC00A1FED8B1A20EEDA
:104D2000010A1FED8C1A20EE010ABDEEC00A40F206
:104D30002030C2F2000080ED000A90ED000AB8EECB
:104D4000C00A1FED931A20EE010A30EE000A1FED93
:104D5000951A20EE010A40F29430C2F2000080ED74
:104D6000000AACE040F2EC00C2F2000090ED030A51
:104D7000B8EEC00A1FEDA21A20EE010A1FEDA31A19
:104D800020EE010ABDEEC00A40F22430C2F200005B
:104D900080ED000A90ED000AB8EEC00A1FEDAA1AD5
:104DA00020EE010A30EE000A1FEDAC1A20EE010AD7
:104DB00040F2A030C2F2000080ED000A7FE0002047
:104DC000FCF764F840F28524C2F20004022020704F
:104DD0001FEDB10AFCF7A8FF0125012004F026FE13
:104DE00025700120FCF752F869E043F60040C4F258
:104DF00001000821016062E043F60040C4F20100B6
:104E0000002101605BE040F6B850C2F200000021D2
:104E1000416154E040F2EC00C2F200006021016107
:104E20004DE040F2EC00C2F200006121016146E079
:104E300040F2EC00C2F20000622101613FE040F26A
:104E4000EC00C2F200006321016138E040F2EC00A6
:104E5000C2F200006421016131E040F2EC00C2F2D4
:104E60000000652101612AE040F2EC00C2F200007E
:104E70006621016123E040F2EC00C2F200006721EC
:104E800001611CE040F2EC00C2F200006821016107
:104E900015E040F2EC00C2F20000692101610EE071
:104EA00040F2EC00C2F20000A021016107E040F2F4
:104EB000EC00C2F2000059210161FFE7FFE700F0BA
:104EC00072BC40F2EC00C2F20000006840F24131D6
:104ED000884240F06784FFE740F2EC00C2F2000035
:104EE000007A01389F2800F25B84DFE810F0A00010
:104EF000C500E200FF001C01390156017301950154
:104F0000C201DB01F401360263029D02CB02980369
:104F1000C503F203590459045904590459045904A6
:104F20005904590459045904590459045904590499
:104F30005904590459045904590459045904590489
:104F40005904590459045904590459045904590479
:104F50005904590459045904590459045904590469
:104F60005904590459045904590459045904590459
:104F70005904590459045904590459045904590449
:104F80005904590459045904590459045904590439
:104F90005904590459045904590459045904520430
:104FA00059045904590459045904590405040C04BA
:104FB00013041A04210428042F0436043D04440475
:104FC00059045904590459045904590459045904F9
:104FD00059045904590459045904590459045904E9
:104FE00059045904590459045904590459045904D9
:104FF00059045904590459045904590459045904C9
:1050000059045904590459045904590459045904B8
:1050100059045904590459045904590459045904A8
:105020005904590459045904590459044B0440F2D1
:10503000EC00C2F20000C06801280AD1FFE740F688
:10504000B850C2F2000000210160012004F0EEFC23
:1050500011E040F2EC00C2F20000C06850B9FFE776
:1050600040F6B850C2F2000000210160002004F0B8
:10507000DDFCFFE7FFE794E340F2EC00C2F2000042
:10508000C06807F0FCFB41EC100B9FEDE11B53ECFB
:10509000112B51EC100B07F081FC41EC100B51EC83
:1050A000100B07F0E7F940F24821C2F20001486313
:1050B00077E340F2EC00C2F20000C06807F0DFFBCB
:1050C00041EC100B9FEDD21B53EC112B51EC100B4C
:1050D00007F064FC41EC100B51EC100B07F0CAF91F
:1050E00040F24821C2F2000188635AE340F2EC002A
:1050F000C2F20000C06807F0C2FB41EC100B9FED4C
:10510000C41B53EC112B51EC100B07F047FC41EC86
:10511000100B51EC100B07F0ADF940F6B851C2F28C
:10512000000188613DE340F2EC00C2F20000C0687B
:1051300007F0A5FB41EC100B9FEDB51B53EC112BB9
:1051400051EC100B07F02AFC41EC100B51EC100B4A
:1051500007F090F940F6B851C2F20001C86120E3AF
:1051600040F2EC00C2F20000C06807F088FB41EC9E
:10517000100B9FEDA71B53EC112B51EC100B07F0FC
:105180000DFC41EC100B51EC100B07F073F940F2E1
:10519000B431C2F20001086003E340F2EC00C2F255
:1051A0000000C06807F06BFB41EC100B9FED981BF3
:1051B00053EC112B51EC100B07F0F0FB41EC100BF2
:1051C00051EC100B07F056F940F2B831C2F2000171
:1051D0000860E6E240F2EC00C2F2000090ED030A43
:1051E000B8EEC00A10EE100A07F0D6FC41EC100B26
:1051F0009FED871B53EC112B51EC100B07F0CEFBEE
:1052000041EC100B51EC100B07F034F940F6D8517B
:10521000C2F200010860C4E240F2EC00C2F20000F9
:1052200090ED030AB8EEC00A9FED7B1A20EE010A4A
:105230009FED7A1A20EE010ABDEEC00A40F2083056
:10524000C2F2000080ED000A90ED000AB8EEC00A3C
:105250009FED731A20EE010A30EE000A9FED711ADD
:1052600020EE010A40F6B850C2F2000080ED000ABC
:1052700097E240F2EC00C2F2000090ED030AB8EEB3
:10528000C00A9FED651A20EE010A9FED641A20EE18
:10529000010ABDEEC00A40F21C30C2F2000080EDEF
:1052A000000A7EE240F2EC00C2F2000090ED030A38
:1052B000B8EEC00A9FED581A20EE010A9FED571A6A
:1052C00020EE010ABDEEC00A40F21C30C2F200001E
:1052D00080ED000A65E240F2EC00C2F20000C06816
:1052E000012807D1FFE740F28420C2F2000001212B
:1052F00001702FE040F2EC00C2F20000C06802280A
:1053000007D1FFE740F28420C2F2000002210170C1
:105310001FE040F2EC00C2F20000C068032807D191
:10532000FFE740F28420C2F20000022101700FE08A
:1053300040F2EC00C2F20000C068042807D1FFE789
:1053400040F28420C2F2000004210170FFE7FFE771
:10535000FFE7FFE7FDF7B0F823E240F2EC00C2F20E
:10536000000090ED030AB8EEC00A9FED2B1A20EE64
:10537000010A9FED2A1A20EE010ABDEEC00A40F292
:105380001430C2F2000080ED000A90ED000AB8EE81
:10539000400A9FED231A20EE010A30EE000A9FED2D
:1053A000211A20EE010A40F6B850C2F2000080ED4A
:1053B000020AF6E140F2EC00C2F2000090ED030AAE
:1053C000B8EEC00A9FED141A20EE010A9FED131AE1
:1053D00020EE010ABDEEC00A40F21830C2F2000011
:1053E00080ED000A90ED000AB8EE400A9FED0C1A1D
:1053F00020EE010A30EE000A9FED0A1A20EE010AA3
:1054000040F6B850C2F2000080ED030AC9E100BFC7
:10541000FCA9F1D24D62503F0000803900000047E6
:1054200000000038DB0F494040F2EC00C2F20000FF
:1054300090ED030AB8EEC00A10EE100A07F0ACFBBC
:1054400041EC100B9FEDE41B53EC112B51EC100BB6
:1054500007F0A4FA41EC100B51EC100B07F00AF81E
:1054600040F6D851C2F20001886091ED020A9FED2A
:10547000E21A80EE010A40F24820C2F2000080EDFC
:10548000000A8EE140F2EC00C2F2000090ED030A47
:10549000B8EEC00A9FEDD31A20EE010A9FEDD21A92
:1054A00020EE010ABDEEC00A40F20C30C2F200004C
:1054B00080ED000A40F28420C2F20000007801284A
:1054C00008D0FFE740F28420C2F2000000780228F2
:1054D0004DD1FFE740F20C30C2F2000090ED000A1F
:1054E000B8EE400A9FEDC11A20EE010A30EE000A24
:1054F0009FEDBF1A20EE010A40F6B850C2F200003C
:1055000080ED010A041D40F2C030C2F2000090EDAF
:105510000C0A9FEDB81A20EE010A10EE100A07F0EF
:105520003BFB41EC100B51EC100B9FEDA90B53EC26
:10553000102B07F033FA41EC190B51EC190B06F064
:1055400099FF08EE100A8DED049B9DF8170080F07E
:1055500080008DF817000498059906F08BFF00EE87
:10556000900A2046B0EE480A05F07CFA56E040F278
:105570008420C2F20000007804284ED1FFE740F2F8
:105580000C30C2F2000090ED000AB8EE400A9FED28
:10559000971A20EE010A30EE000A9FED951A20EED0
:1055A000010A40F6D850C2F2000080ED030A00F173
:1055B0000C0440F2C030C2F2000090ED0C0A9FEDE6
:1055C0008D1A20EE010A10EE100A07F0E5FA41EC00
:1055D000100B51EC100B9FED7E0B53EC102B07F0D2
:1055E000DDF941EC190B51EC190B06F043FF08EE05
:1055F000100A8DED069B9DF81F0080F080008DF84D
:105600001F000698079906F035FF00EE900A204625
:10561000B0EE480A05F026FAFFE7FFE7C1E040F2E6
:10562000EC00C2F2000090ED030AB8EEC00A9FED54
:105630006D1A20EE010A9FED6C1A20EE010ABDEEF4
:10564000C00A40F22030C2F2000080ED000A90ED66
:10565000000AB8EEC00A9FED651A20EE010A30EE8E
:10566000000A9FED631A20EE010A40F29430C2F264
:10567000000080ED000A94E040F2EC00C2F200006D
:1056800090ED030AB8EEC00A9FED561A20EE010A0B
:105690009FED551A20EE010ABDEEC00A40F22430FB
:1056A000C2F2000080ED000A90ED000AB8EEC00AD8
:1056B0009FED4E1A20EE010A30EE000A9FED4C1AC3
:1056C00020EE010A40F2A030C2F2000080ED000A94
:1056D00067E00020FBF7DAFB40F28524C2F2000409
:1056E000022020709FED3E0AFCF71EFB0120207077
:1056F0000120FBF7CBFB54E040F2EC00C2F20000CB
:10570000602101614DE040F2EC00C2F20000612135
:10571000016146E040F2EC00C2F20000622101614A
:105720003FE040F2EC00C2F200006321016138E08A
:1057300040F2EC00C2F200006421016131E040F26D
:10574000EC00C2F20000652101612AE040F2EC00A9
:10575000C2F200006621016123E040F2EC00C2F2D7
:105760000000672101611CE040F2EC00C2F2000081
:105770006821016115E040F2EC00C2F200006921ED
:1057800001610EE040F2EC00C2F20000A0210161D4
:1057900007E040F2EC00C2F200005921016100E094
:1057A000FFE7FFE7FFE7FCF707F840F21030C2F22F
:1057B000000000210180FEF737FA10B1FFE7FEF785
:1057C000CDBE0AB0BDEC048BB0BD00BF00BF00BFB2
:1057D000B8CB7EDDE9CEBA3FFCA9F1D24D62503F95
:1057E0009A99993F00008039000000470000003876
:1057F000DB0F49400000754481420A3C81B00090B3
:1058000001B0704781B0009001B0704781B0009046
:1058100001B0704780B584B041F68460C2F20000E8
:1058200002900298006B01282BD1FFE70298022119
:10583000016302980068016821F00101016000F035
:1058400007FE0190FFE7029800684068C00798B122
:10585000FFE700F0FDFD0199401A0B280BD3FFE78D
:105860000298416B41F400314163029805210163C4
:10587000012003900DE0E6E70298002141630391C7
:1058800007E00298416B41F400214163012003903D
:10589000FFE704B080BD000080B584B0029002989C
:1058A000006B02282FD1FFE702980068016841F0E1
:1058B0000101016000F0CCFD0190FFE70298006853
:1058C0004068C00798B9FFE700F0C2FD0199401A8F
:1058D0000B280BD3FFE70298416B41F40031416381
:1058E0000298052101630120039014E0E6E7029885
:1058F0000068016821F00201016002980121016342
:105900000020039007E00298416B41F4801141634D
:1059100001200390FFE704B080BD000081B000903B
:1059200001B0704780B582B00190FBF745FF02B02F
:1059300080BD000081B0009001B0704780B582B09A
:105940000190FBF739FF02B080BD000081B00090EC
:1059500001B0704780B582B00190FBF72DFF02B017
:1059600080BD000081B0009001B0704782B000900F
:105970000098806B022806D0FFE70098802181659F
:10598000012001900CE000980521816300980068D7
:10599000016821F001010160FFE700200190FFE7AD
:1059A000019802B07047000080B586B005900020D5
:1059B000039040F21000C2F20000006848F2B511F6
:1059C000C1F64E31A0FB0101880A02900598C06D16
:1059D000019001980068049004980599096EC840E8
:1059E000000700281BD5FFE70598006800684007FE
:1059F000002813D5FFE705980068016821F004012D
:105A000001600598006E082101FA00F00199886094
:105A10000598816D41F001018165FFE7FFE704987A
:105A20000599096EC840C007A8B1FFE7059800684E
:105A30004069000600280DD5FFE70598006E01219A
:105A400001FA00F0019988600598816D41F002012A
:105A50008165FFE7FFE704980599096EC840400794
:105A6000002815D5FFE70598006800688007002822
:105A70000DD5FFE70598006E042101FA00F00199A9
:105A800088600598816D41F004018165FFE7FFE7BB
:105A900004980599096EC840C006002848D5FFE75C
:105AA0000598006800680007002840D5FFE70598C2
:105AB000006E102101FA00F00199886005980068D5
:105AC0000068400300281AD5FFE7059800680068C1
:105AD0000003002809D4FFE70598406C20B1FFE7D8
